:020000040800F2
:10000000980C0020DD0100083D0200083D020008B8
:100010003D0200083D0200083D020008000000000B
:100020000000000000000000000000003D02000889
:100030003D020008000000003D0200083D020008EB
:100040003D0200083D0200083D0200083D02000894
:100050003D0200083D0200083D0200083D02000884
:100060003D0200083D0200083D0200083D02000874
:100070003D0200083D0200083D0200083D02000864
:100080003D0200083D0200083D0200083D02000854
:100090003D0200083D0200083D0200083D02000844
:1000A0003D0200083D0200083D0200083D02000834
:1000B0003D0200083D0200083D0200083D02000824
:1000C0003D0200083D0200083D0200083D02000814
:1000D0003D0200083D0200083D0200083D02000804
:1000E0003D0200083D0200083D0200083D020008F4
:1000F0003D0200083D0200083D0200083D020008E4
:100100003D0200083D0200083D0200083D020008D3
:100110003D0200083D0200083D0200083D020008C3
:100120003D0200083D0200083D0200083D020008B3
:100130003D0200083D0200083D0200083D020008A3
:100140003D0200083D0200083D0200083D02000893
:100150003D0200083D0200083D0200083D02000883
:100160003D0200083D0200083D0200083D02000873
:100170003D0200083D0200083D0200083D02000863
:100180003D0200083D02000810B5054C237833B944
:10019000044B13B10448AFF300800123237010BD5A
:1001A0005004002000000000B80E000808B5064BFF
:1001B0001BB106480649AFF300800648036813B137
:1001C000054B03B1984708BD00000000B80E0008B9
:1001D000540400204C0400200000000080B582B0D0
:1001E00000AF114B7B60114B3B6007E03B681A1D71
:1001F0003A607A68111D796012681A603A680C4B8F
:100200009A42F3D30B480C494FF000028842B8BF22
:1002100040F8042BFFF6FAAF00F030FA00F000F9D6
:100220000837BD4680BD00BFB80E000800000020A2
:1002300050040020500400209804002080B400AF37
:10024000FEE700BF80B500AF00F006F800F024F82C
:1002500000F042F880BD00BF80B500AF0220012150
:1002600000F0FCF80A4B40F618421A60084B0122D5
:100270001A71074B00225A71054B00229A71044BE8
:100280000022DA710348024900F024F980BD00BF62
:100290008C0400200004024080B500AF0220012140
:1002A00000F0DCF80A4B4FF470421A60084B012250
:1002B0001A71074B02225A71054B00229A71044BA6
:1002C0000122DA710348024900F004F980BD00BF41
:1002D0008C0400200004024080B500AF0220012100
:1002E00000F0DAF80120012100F0B8F80E4BC0222E
:1002F0001A600D4B02221A710B4B00225A710A4BE5
:1003000000229A71084B0122DA710848064900F070
:10031000E1F806480621022200F06AF903480721A5
:10032000022200F065F980BD8C040020000002402C
:1003300080B584B000AF78600023FB81254B1A683C
:10034000254BA3FB0213DB0D9BB2013BFB817A68BB
:10035000224B5A60214BFA891A80204B00221A81C5
:100360001E4B00225A801E481C4900F02DFA1D4BDE
:1003700060221A801B4B01225A801A4B00229A607D
:10038000184B00229A811648164900F0A7FA144823
:10039000082100F091FC1248124900F019FB1048A6
:1003A000082100F0A5FC0E480E4900F099FB0C480E
:1003B000082100F0BBFC0A480A4900F017FC084875
:1003C000082100F0CFFC0648012100F067FA103741
:1003D000BD4680BD000000206BCA5F6B6C0400202E
:1003E000000400407804002080B483B000AF0246CF
:1003F0000B46FA80BB80FB88012B02D0022B04D075
:1004000007E0064BBA885A6303E0044BBA889A6344
:1004100000BF0C37BD465DF8047B70470004004008
:1004200080B582B000AF0023FB80FFF70BFF0A4BC3
:100430004FF4C0421A83084B4FF410425A83642091
:10044000FFF776FF01201421FFF7CEFF02201421D1
:10045000FFF7CAFFFEE700BF0004024080B483B08C
:1004600000AF78600B46FB70FB78002B06D0094B81
:10047000084A116B7A680A431A6306E0054B054A7D
:10048000116B7A68D2430A401A630C37BD465DF897
:10049000047B70470038024080B483B000AF7860BE
:1004A0000B46FB70FB78002B06D0094B084A116CF9
:1004B0007A680A431A6406E0054B054A116C7A68AB
:1004C000D2430A401A640C37BD465DF8047B70477E
:1004D0000038024080B487B000AF786039600023F4
:1004E0007B6100233B610023FB6000237B6176E09E
:1004F0007B69012202FA03F33B613B681A683B699E
:100500001340FB60FA683B699A4265D17B681A68C0
:100510007B695B00032101FA03F3DB431A407B682C
:100520001A607B681A683B681B7919467B695B0017
:1005300001FA03F31A437B681A603B681B79012BAD
:1005400003D03B681B79022B2ED17B689A687B69AC
:100550005B00032101FA03F3DB431A407B689A60D6
:100560007B689A683B685B7919467B695B0001FA96
:1005700003F31A437B689A607B685A687B699BB275
:10058000012101FA03F3DB431A407B685A607B6860
:100590005A683B689B7919467B699BB201FA03F361
:1005A0009BB21A437B685A607B68DA687B699BB2AE
:1005B0005B00032101FA03F3DB431A407B68DA6036
:1005C0007B68DA683B68DB7919467B695B0001FA76
:1005D00003F31A437B68DA607B6901337B617B69D3
:1005E0000F2B85D91C37BD465DF8047B704700BFD3
:1005F00080B485B000AF786013460A467A807B707D
:100600000023FB600023BB607A787B8803F007033C
:100610009B0002FA03F3FB607B88DB089BB21A465F
:100620007B88DB089BB219467B68083153F82110A0
:100630007B8803F007039B000F2000FA03F3DB43E2
:1006400019407B68083243F822107B88DB089BB294
:100650001A467B68083253F82220FB681343BB60BC
:100660007B88DB089BB21A467B680832B96843F87E
:1006700022101437BD465DF8047B704780B500AF8B
:10068000114B114A126842F001021A600E4B00220F
:100690009A600D4A0C4B1B6823F0847323F480335B
:1006A0001360094B094A5A60074B074A126822F443
:1006B00080221A60044B0022DA6000F00BF8044B31
:1006C0004FF000629A6080BD003802401030002474
:1006D00000ED00E080B483B000AF00237B60002316
:1006E0003B60354B344A126842F480321A60324B18
:1006F0001B6803F400333B607B6801337B603B681D
:10070000002B03D17B68B3F5A06FF0D12A4B1B6897
:1007100003F40033002B02D001233B6001E00023EF
:100720003B603B68012B42D1234B234A126C42F0C1
:1007300080521A64214B214A126842F480421A60A6
:100740001D4B1D4A92689A601B4B1B4A926842F4EB
:1007500000429A60184B184A926842F4A0529A607C
:10076000154B174A5A60144B134A126842F08072B4
:100770001A6000BF104B1B6803F00073002BF9D008
:10078000104B40F205621A600B4B0B4A926822F044
:1007900003029A60084B084A926842F002029A608B
:1007A00000BF054B9B6803F00C03082BF9D10C37F5
:1007B000BD465DF8047B7047003802400070004081
:1007C00008544007003C024080B485B000AF786018
:1007D00039600023FB817B681B88FB817A68284B8A
:1007E0009A4213D07A68274B9A420FD07B68B3F1B4
:1007F000804F0BD07A68244B9A4207D07A68234BFB
:100800009A4203D07A68224B9A4208D1FB8923F09E
:100810007003FB813B685A88FB891343FB817A682C
:100820001C4B9A420CD07A681B4B9A4208D0FB8929
:1008300023F44073FB813B681A89FB891343FB81D6
:100840007B68FA891A803B685A687B68DA623B6881
:100850001A887B681A857A68094B9A4203D07A68AD
:10086000084B9A4204D13B689B7A1A467B681A86E9
:100870007B6801229A821437BD465DF8047B70477D
:100880000000014000040140000400400008004056
:10089000000C0040001000400014004080B483B001
:1008A00000AF78600B46FB70FB78002B08D07B68AC
:1008B0001B889BB243F001039AB27B681A8007E061
:1008C0007B681B889BB223F001039AB27B681A8075
:1008D0000C37BD465DF8047B704700BF80B485B01F
:1008E00000AF7860396000237B810023FB81002307
:1008F000BB817B681B8C9BB223F001039AB27B689F
:100900001A847B681B8CFB817B689B88BB817B681E
:100910001B8B7B817B8923F070037B817B8923F098
:1009200003037B813B681A887B8913437B81FB89A6
:1009300023F00203FB813B689A89FB891343FB8107
:100940003B685A88FB891343FB817A681E4B9A42A5
:1009500003D07A681D4B9A4223D1FB8923F0080308
:10096000FB813B68DA89FB891343FB81FB8923F018
:100970000403FB813B689A88FB891343FB81BB8995
:1009800023F48073BB81BB8923F40073BB813B6874
:100990001A8ABB891343BB813B685A8ABB891343BC
:1009A000BB817B68BA899A807B687A891A833B68A5
:1009B0009A687B685A637B68FA891A841437BD4643
:1009C0005DF8047B704700BF000001400004014057
:1009D00080B485B000AF7860396000237B8100234C
:1009E000FB810023BB817B681B8C9BB223F010032F
:1009F0009AB27B681A847B681B8CFB817B689B881E
:100A0000BB817B681B8B7B817B8923F4E0437B81EB
:100A10007B8923F440737B813B681B881B029AB25D
:100A20007B8913437B81FB8923F02003FB813B6897
:100A30009B891B019AB2FB891343FB813B685B884E
:100A40001B019AB2FB891343FB817A68224B9A42BD
:100A500003D07A68214B9A422BD1FB8923F0800383
:100A6000FB813B68DB891B019AB2FB891343FB8145
:100A7000FB8923F04003FB813B689B881B019AB2F2
:100A8000FB891343FB81BB8923F48063BB81BB8952
:100A900023F40063BB813B681B8A9B009AB2BB892D
:100AA0001343BB813B685B8A9B009AB2BB891343AB
:100AB000BB817B68BA899A807B687A891A833B6894
:100AC0009A687B689A637B68FA891A841437BD46F2
:100AD0005DF8047B704700BF000001400004014046
:100AE00080B485B000AF7860396000237B8100233B
:100AF000FB810023BB817B681B8C9BB223F480733A
:100B00009AB27B681A847B681B8CFB817B689B880C
:100B1000BB817B689B8B7B817B8923F070037B810E
:100B20007B8923F003037B813B681A887B8913430D
:100B30007B81FB8923F40073FB813B689B891B024B
:100B40009AB2FB891343FB813B685B881B029AB214
:100B5000FB891343FB817A68224B9A4203D07A685F
:100B6000214B9A422BD1FB8923F40063FB813B6824
:100B7000DB891B029AB2FB891343FB81FB8923F4B7
:100B80008063FB813B689B881B029AB2FB891343FD
:100B9000FB81BB8923F48053BB81BB8923F40053C1
:100BA000BB813B681B8A1B019AB2BB891343BB8183
:100BB0003B685B8A1B019AB2BB891343BB817B688C
:100BC000BA899A807B687A899A833B689A687B683D
:100BD000DA637B68FA891A841437BD465DF8047BB2
:100BE000704700BF000001400004014080B485B0A0
:100BF00000AF786039600023BB8100237B81002334
:100C0000FB817B681B8C9BB223F480539AB27B6878
:100C10001A847B681B8C7B817B689B88FB817B684B
:100C20009B8BBB81BB8923F4E043BB81BB8923F44D
:100C30004073BB813B681B881B029AB2BB8913437C
:100C4000BB817B8923F400537B813B689B891B0319
:100C50009AB27B8913437B813B685B881B039AB202
:100C60007B8913437B817A68114B9A4203D07A685F
:100C7000104B9A420AD1FB8923F48043FB813B68E5
:100C80001B8A9B019AB2FB891343FB817B68FA891B
:100C90009A807B68BA899A833B689A687B681A64F1
:100CA0007B687A891A841437BD465DF8047B7047E7
:100CB000000001400004014080B485B000AF7860BE
:100CC0000B467B800023FB817B681B8BFB81FB89B0
:100CD00023F00803FB81FA897B881343FB817B683F
:100CE000FA891A831437BD465DF8047B704700BF4C
:100CF00080B485B000AF78600B467B800023FB8119
:100D00007B681B8BFB81FB8923F40063FB817B8861
:100D10001B029AB2FB891343FB817B68FA891A8311
:100D20001437BD465DF8047B704700BF80B485B0C2
:100D300000AF78600B467B800023FB817B689B8B38
:100D4000FB81FB8923F00803FB81FA897B8813432D
:100D5000FB817B68FA899A831437BD465DF8047B72
:100D6000704700BF80B485B000AF78600B467B80D1
:100D70000023FB817B689B8BFB81FB8923F4006351
:100D8000FB817B881B029AB2FB891343FB817B6842
:100D9000FA899A831437BD465DF8047B704700BF1B
:100DA000024B13B1024800F005B870470000000084
:100DB000C10D0008014600200246034600F018B8A5
:100DC00038B5094D094C641BA41018BF05EB840508
:100DD00005D0013C55F8043D9847002CF9D1BDE8F9
:100DE000384000F05FB800BF480400204C040020E9
:100DF000F0B5274C2668D6F8484185B00746002C48
:100E000041D065681F2D1EDD224818B94FF0FF3014
:100E100005B0F0BD4FF4C870039102920193AFF397
:100E200000800399029A019B04460028EED0D6F870
:100E300048512560002060600546C6F84841C4F866
:100E40008801C4F88C013FB9AB1C002001356560F6
:100E500044F8231005B0F0BD04EB85004FF0010C01
:100E6000C0F88820D4F888610CFA05F21643022FE6
:100E7000C4F88861C0F80831E6D1D4F88C311A433F
:100E8000C4F88C21E0E706F5A674C6F84841B8E737
:100E9000B40E000800000000F8B500BFF8BC08BCA4
:100EA0009E467047F8B500BFF8BC08BC9E46704728
:080EB0004300000018000020BF
:100EB800007A030A00000000000000000102030499
:100EC80006070809000000000000000004030020D5
:100ED8006C030020D4030020000000000000000084
:100EE80000000000000000000000000000000000FA
:100EF800000000000000000000000000B00E000824
:100F080000000000000000000000000000000000D9
:100F180000000000000000000000000000000000C9
:100F280000000000000000000000000000000000B9
:100F380000000000000000000000000000000000A9
:100F48000000000000000000000000000000000099
:100F58000000000000000000000000000000000089
:100F68000000000000000000000000000000000079
:100F780001000000000000000E33CDAB34126DE616
:100F8800ECDE05000B00000000000000000000007F
:100F98000000000000000000000000000000000049
:100FA8000000000000000000000000000000000039
:100FB8000000000000000000000000000000000029
:100FC8000000000000000000000000000000000019
:1012F800A10D0008AD0100088901000800000000E8
:0400000508000000EF
:00000001FF
